:020000040000FA
:1000000018F09FE518F09FE518F09FE518F09FE5C0
:1000100018F09FE50000A0E1F0FF1FE518F09FE554
:100020005800000040000000E81A000048000000EE
:100030004C000000000000005000000054000000D0
:10004000FEFFFFEAFEFFFFEAFEFFFFEAFEFFFFEA18
:10005000FEFFFFEAFEFFFFEA94009FE5AA10A0E37F
:100060005520A0E32430A0E3043080E50130A0E374
:10007000003080E50C1080E50C2080E5083090E52C
:10008000013B13E2FCFFFF0A0330A0E3003080E5F0
:100090000C1080E50C2080E558009FE50410A0E3DB
:1000A000041080E50210A0E3001080E548009FE501
:1000B000DBF021E300D0A0E1080040E2D7F021E32B
:1000C00000D0A0E1080040E2D1F021E300D0A0E19F
:1000D000080040E2D2F021E300D0A0E1030C40E2AE
:1000E000D3F021E300D0A0E1030C40E20C009FE537
:1000F00010FF2FE180C01FE000C01FE0B83C0040AF
:1001000004010000000000EB2E0000EB2C008FE249
:10011000000C90E800A08AE000B08BE001704AE299
:100120000B005AE10000001A260000EB0F00BAE8AD
:1001300018E04FE2010013E303F0471013FF2FE133
:10014000541B0000741B0000102052E27800B028FD
:100150007800A128FBFFFF8A822EB0E13000B02892
:100160003000A12800409045004081451EFF2FE14E
:100170000030B0E30040B0E30050B0E30060B0E313
:10018000102052E27800A128FCFFFF8A822EB0E105
:100190003000A128003081451EFF2FE101C08FE211
:1001A0001CFF2FE11FB5059886460FBC009C02B0CE
:1001B0007047000001C08FE21CFF2FE130B475468C
:1001C000AE4630BC70470000070600EB0210A0E10D
:1001D000F1FFFFEB1CC09FE50FC08CE001001CE3AA
:1001E0000DE08F120FE0A0011CFF2FE101C08FE294
:1001F0001CFF2FE101F02AFCB51400007847C0462F
:1002000003002DE9EAFFFFEB0300BDE8160600EB53
:1002100010B5002406E014216143FD4A881800F05F
:1002200087FF641C042CF6D3FA4800F081FFFA48DB
:1002300000F07EFFF94800F07BFFF94800F078FFFE
:10024000F84800F075FFF348F7490860F248F749AD
:10025000086010BC08BC184710B5040001F01CF879
:10026000F3480068401CF2490860F2480068002822
:1002700008D1F04804600800006801280ED1FFF79B
:10028000C7FF0BE0EC480068002807D1E948006888
:10029000C06AE16A884201D8E6480460E74800681D
:1002A000401CE6490860E649E06A0968884202D9CC
:1002B000E349E06A08601422E16A5143D44A88188D
:1002C000211D00F045FF00F0F2FFDB480068002828
:1002D00007D0D8480068C06AE16A884201D201F0BC
:1002E000ADFC10BC08BC1847FFB581B00E000A9FDA
:1002F0000C9C216B0398401E800008180090009809
:10030000C008C0000090002E11D0002508E0715DEB
:10031000200034304155705D002800D102E06D1C92
:10032000082DF4D3C04600213B20015502E00021F6
:1003300034200155042F00D30327E762201D00F06D
:1003400004FF2000183000F000FF24610420C01BCF
:10035000A06164620020E063002140200155049AFE
:10036000684603C800F030FF20600B98002801D0D9
:100370000B98046005B0F0BC08BC1847FFB585B009
:100380001700B80000F0DFFF0600002E0BD044205D
:1003900000F0D9FF0400002C01D0266304E03000F7
:1003A00001F026F800E00024002C10D000220EA856
:1003B00003C86B4613C303923A00089B05A803C801
:1003C000FFF792FF2000FFF747FF012501E000251E
:1003D000ED43280009B0F0BC08BC184792490968F1
:1003E0000968002901D1012100E00021002904D081
:1003F0000021C943934A116006E08B490968C96826
:10040000C868904A41681160704710B50400206BBD
:1004100000F0EEFF200000F0EBFF10BC08BC184716
:1004200070B5050000F038FF002D02D1814800684A
:1004300000E028000400201D00F0B2FEA06A0028A1
:1004400003D02000183000F0ABFE7C480068401C50
:100450007A49086077480068844209D1211D7048B4
:1004600000F076FE78480068401C7749086009E093
:100470006F480068401E6E4908602000FFF7C5FF06
:10048000FFF7ACFF00F013FF6B480068002805D0B1
:1004900068480068844201D101F0D0FB70BC08BC00
:1004A0001847F8B5002000906848006800286AD115
:1004B00067480068451C66480560002D0FD15A4802
:1004C00007685A48006858490860584807606148FA
:1004D0000068401C5F490860FFF780FFC04659482C
:1004E000006885423DD3C0464F4800680068002838
:1004F00001D1012000E00020002804D00020C043EA
:10050000504908602CE048480068C068C4686668C4
:10051000B54202D24B48066022E0201D00F040FEAA
:10052000A06A002803D02000183000F039FE4449AA
:10053000E06A0968884202D94149E06A08601422E9
:10054000E16A5143324A8818211D00F001FE394901
:10055000E06A0968C96A8842C6D301200090C3E7EF
:10056000C04634480068C06A1421484328490858E6
:10057000012801D90120009037480068002801D0E7
:100580000120009004E035480068401C33490860B1
:100590000098F8BC08BC184770B50024002600F08D
:1005A0007BFE2A480068401E284908600800006851
:1005B000002875D11E480068002871D022E0174835
:1005C000C068C4682000183000F0EAFD201D00F06B
:1005D000E7FD1B49E06A0968884202D91849E06AC8
:1005E00008601422E16A5143094A8818211D00F06D
:1005F000AFFD1049E06A0968C96A884202D3012048
:100600001549086005480068002829D1012028E024
:10061000B8000040080100401C01004030010040CB
:100620004401004058010040040000400800004020
:1006300010000040000000401C0000402C00004062
:1006400018000040300000400C000040380000401E
:10065000140000402800004024000040200000401A
:1006600000200028ABD0002C01D0FFF7B7FEFE48D9
:100670000568002D0DD0C046FFF713FF002802D0FB
:100680000120FA4908606D1E002DF5D10020F649C1
:100690000860F6480068002802D0012601F0CEFA72
:1006A00000F005FE300070BC08BC1847F8B5050026
:1006B0000E00EF480768EF480068001D00F070FD6D
:1006C000681C002808D1002E06D0EA480168091DE0
:1006D000E94800F03DFD1AE07C19E64800684460F6
:1006E000BC4207D2E3480168091DE448006800F0F5
:1006F0003BFD0CE0DF480168091DE148006800F09F
:1007000033FDE0480068844201D2DE480460F8BC52
:1007100008BC1847DC480068401CDB49086070478B
:10072000F3B581B0040000200090FFF7F3FFD0483C
:100730000668216802980D182068B04207D9206821
:10074000A8420BD9B54209D90120009006E02068E3
:10075000A84201D8B54201D9012000902560009837
:10076000002803D0A81B0021FFF7A0FFFFF714FF0C
:100770000700002F01D101F061FAFEBC08BC184748
:1007800070B504000025002C08D0FFF7C3FF00213E
:100790002000FFF78BFFFFF7FFFE0500002D01D1C2
:1007A00001F04CFA70BC08BC184770B5040000F0AA
:1007B00073FD002C02D1AF48006800E02000060065
:1007C000F56A00F074FD280070BC08BC184710B42E
:1007D00001000023002902D1A64C246800E00C008F
:1007E0002200D06A10BC7047FEB507000D00002043
:1007F0000090042D00D3032500F04EFD002F02D100
:100800009C48006800E038000400E66AAE4244D02C
:10081000B5420BD99748006884420DD095480068CE
:10082000C06AA84208D80120009005E091480068FD
:10083000844201D101200090E06A0190E562A06944
:10084000C00FC007002802D10420401BA0616169CD
:100850001422019850438D4A8018814201D1012011
:1008600000E00020002812D0201D00F099FC8849EB
:10087000E06A0968884202D98549E06A0860142262
:10088000E16A5143814A8818211D00F061FC0098FB
:10089000002801D001F0D2F9C04600F008FDFEBCEE
:1008A00008BC184778480068002803D001206F4929
:1008B000086027E000206D4908607548016800E085
:1008C000491E14204843714A1058002801D10120C4
:1008D00000E000200028F3D114224A436B4BD018CB
:1008E000426852684260020008324368934202D173
:1008F0004268526842604268D2685E4B1A6064483F
:100900000160C046704770B5050000F0C5FC002DC1
:1009100002D15848006800E028000400201D00F0C3
:100920003FFCA06A002803D02000183000F038FCFB
:10093000211D514800F00CFC4020005D012802D12F
:1009400000214020015500F0B2FC52480068002808
:1009500005D000F0A1FCFFF741FD00F0A8FC4548E0
:100960000068844212D14B480068002802D001F090
:1009700065F90BE04048006847490968884203D19F
:1009800000203C49086001E0FFF78CFF70BC08BC08
:10099000184710B4010000200A00374C5369A342E5
:1009A00001D1012300E00023002B11D03B4C936ABE
:1009B000A34201D1012300E00023002B08D1936A58
:1009C000002B01D1012300E00023002B00D00120E7
:1009D00010BC704770B505002C00264800688442A2
:1009E00025D0002C23D000F057FC2000FFF7D1FFCA
:1009F00000281AD0201D00F0D3FB2549E06A0968C1
:100A0000884202D92249E06A08601422E16A51430F
:100A10001E4A8818211D00F09BFB1649E06A0968F0
:100A2000C96A884201D301F009F900F040FC70BCAA
:100A300008BC1847F8B5050000262C000027200048
:100A4000FFF7A7FF002840D00F480068002837D1E3
:100A50000849E06A0968C96A884200D30126201D56
:100A600000F09EFB0A491BE02000004024000040EB
:100A70001400004000000040580100400800004001
:100A8000040000403000004038000040B800004042
:100A9000180000401C0000401000004030010040E1
:100AA000E06A0968884202D9FE49E06A08601422B7
:100AB000E16A5143FC4A8818211D00F049FB04E01B
:100AC00021001831F94800F043FB3000F8BC08BCA5
:100AD000184710B516E000F0DFFBF548C068C468A1
:100AE000201D00F05DFBF3480068401EF1490860DE
:100AF000F1480068401EF049086000F0D8FB200073
:100B0000FFF783FCEC4800680028E4D110BC08BC67
:100B10001847C046FFF7DDFFE34800680128F9D910
:100B200001F08CF8F6E71CB5E44800210B005A22CE
:100B300000910190E2A1E448FFF720FC0400012CA1
:100B40000CD101F07FF8A01EE04908600120E049C7
:100B500008600020DF49086000F094FB1CBC08BC62
:100B6000184710B501F06EF80020D949086000F070
:100B700092FB10BC08BC184710B500F08DFBD5489F
:100B8000046800F094FB200010BC08BC184700214A
:100B9000D04A10687047C7480068704701000029B4
:100BA00002D1CD48006800E0080002001000343097
:100BB000704770B504000025FFF7ACFDC74800681A
:100BC0000019C6490860FFF7E7FC0500280070BC63
:100BD00008BC184770B505000C00BF480168183103
:100BE000280000F0C1FA01212000FFF75FFD70BC72
:100BF00008BC184770B506000C0015000120C0079E
:100C00002043B54909688861B3480168183130004C
:100C100000F09EFA01212800FFF748FD70BC08BCD7
:100C2000184770B50600F068C4682000183000F05E
:100C3000B7FAAB480068002813D1201D00F0B0FAC5
:100C40009849E06A0968884202D99649E06A0860D2
:100C50001422E16A5143944A8818211D00F078FA61
:100C600004E021001831914800F072FA9A49E06AD4
:100C70000968C96A884204D9012501209949086098
:100C800000E00025280070BC08BC184770B50500BE
:100C90000E000120C00730432860EC68280000F0F7
:100CA0007FFA201D00F07CFA7E49E06A09688842DC
:100CB00002D97C49E06A08601422E16A51437A4A09
:100CC0008818211D00F044FA8349E06A0968C96A5E
:100CD000884202D901208349086070BC08BC1847CB
:100CE00010B5040000F0D8FA7F4800682060794809
:100CF0000068606000F0DBFA10BC08BC18477A4955
:100D000009680160734909684160704770B5060061
:100D10000C0000F0C1FA6F4802687068131A20686E
:100D2000401C002801D1002517E06F493068096890
:100D3000884204D07068904201D801250DE02068F7
:100D4000984207D92068C01A20603000FFF7D7FF0B
:100D5000002502E000202060012500F0A8FA28000C
:100D600070BC08BC184701205E49086070475A49AA
:100D70000968886958490968C96A0422511A564A9B
:100D800012689161704770B506000D0000F084FA9A
:100D900051480068C06B00280BD101214E48006803
:100DA00040300170002D04D02800FFF77FFC00F0D8
:100DB00045FF00F07CFA00F06FFA47480068C46B0A
:100DC000002C0AD0002E04D0002043490968C863D3
:100DD00003E0601E40490968C86300213E4800687E
:100DE0004030017000F063FA200070BC08BC184766
:100DF000FFB581B0070014001D0000F04DFA364821
:100E0000006840300078022812D033490968080091
:100E10003C30C96BB943016001212F480068403064
:100E20000170002D04D02800FFF740FC00F006FF01
:100E300000F03DFA00F030FA002C03D0264800689C
:100E4000C06B20602448006840300078022801D040
:100E5000002608E02049096808003C30CA6B029966
:100E60008A430260012600211B480068403001705F
:100E700000F01DFA300005B0F0BC08BC1847FFB503
:100E800083B00D0016001F0001200290039C00F0AB
:100E900003FA002F01D0E06B38604020005D019024
:100EA000022123E018000040B8000040300100405B
:100EB00044010040100000400C000040340000409D
:100EC00049444C4500000000130B00003000004076
:100ED0001C000040140000400000004020000040C2
:100EE0003800004024000040280000404020015508
:100EF000330000F0BDFE051604080C0E1700E06B71
:100F00002843E0630FE0E06B401CE0630BE0E56327
:100F100009E00198022801D0E56301E00020029079
:100F200001E000E0C046C046019801281AD1201D0A
:100F300000F036F97849E06A0968884202D97649B2
:100F4000E06A08601422E16A5143744A8818211D3E
:100F500000F0FEF87249E06A0968C96A884201D95E
:100F600000F06CFE00F0A3F9029807B0F0BC08BCDA
:100F70001847FFB583B00D0016001F000120019037
:100F8000039C00200090002F01D0E06B38604020CF
:100F9000005D0290022140200155330000F068FE00
:100FA000051604080C0E1700E06B2843E0630FE001
:100FB000E06B401CE0630BE0E56309E00298022867
:100FC00001D0E56301E00020019001E000E0C046AF
:100FD000C046029801282BD152480068002813D13E
:100FE000201D00F0DDF84C49E06A0968884202D90A
:100FF0004949E06A08601422E16A5143474A881867
:10100000211D00F0A5F804E021001831464800F049
:101010009FF84349E06A0968C96A884208D90C9870
:10102000002802D001210C98016001203F4908608E
:10103000019807B0F0BC08BC1847F8B505000E00D1
:101040002C00002000904020075D02210155E06B3C
:10105000401CE063012F29D132480068002813D1D9
:10106000201D00F09DF82C49E06A0968884202D9E9
:101070002949E06A08601422E16A5143274A881826
:10108000211D00F065F804E021001831264800F029
:101090005FF82349E06A0968C96A884206D9002EC8
:1010A00001D001203060012020490860F8BC08BC54
:1010B000184770B50500002D02D11948006800E0FE
:1010C0002800060000F0E8F84020805D022804D1E6
:1010D000002140208155012400E0002400F0E7F8C1
:1010E000200070BC08BC1847F8B504000D00002CA7
:1010F00002D10B48006800E02000060000F0CCF8A8
:1011000007480068C76BF06BA843F06300F0CFF8A6
:101110003800F8BC08BC184718000040B800004070
:101120000000004038000040300100402400004032
:101130000100083141600021C9438160010008318C
:10114000C1600161002101607047002101617047A9
:1011500042684A6093688B60936859609160086147
:1011600003685B1C0360704710B402000B685C1CD2
:10117000002C01D1106907E01000083000E0406841
:10118000446824689C42FAD944684C604C68A16069
:10119000886041600A611468641C146010BC704768
:1011A00001000A694B6888689860081D09C8586082
:1011B0005068884201D1886850600020086110683A
:1011C000401E10601068704730B40300001F0C1DF3
:1011D0000460001F3F4C0460001F0360001F3E4C72
:1011E0000460001F3D4C0460001F3D4C0460001F64
:1011F0003C4C0460001F3C4C0460001F3B4C0460EE
:10120000001F3B4C0460001F3A4C0460001F3A4C26
:101210000460001F394C0460001F394C0460001F3B
:1012200064100460001F0260001F1F240460CC07CC
:10123000E40F002C03D0202504682C430460001F19
:101240000024046030BC704700212E4AD1602E4833
:1012500011008861032151615114C9681022914322
:101260002A4AD1601100096910221143274A1161ED
:101270002749284A11602421274A11600121214A67
:101280005160704710B5FFF7DFFF00F00FFC002042
:1012900010BC08BC1847704710B500F0D3FC1F48BD
:1012A0000068401C1D49086010BC08BC184710B5F8
:1012B0001A48006800280AD018480068401E1749DC
:1012C000086008000068002801D100F0C7FC10BCCD
:1012D00008BC1847AAAAAAAA1212121211111111B7
:1012E000101010100909090908080808070707075E
:1012F00006060606050505050404040403030303A6
:1013000002020202004000E060EA000000F0FFFF7D
:10131000741B000000F1FFFF00F2FFFF3C000040E3
:10132000454AD008C000454A10600022434B5A602D
:10133000434A444B5A6000221A600100404A4A6006
:101340001A000A607047F8B5040000200090FFF70B
:10135000E1F93D480068002804D1FFF7E1FF0120D2
:1013600039490860002C09D008346007400F002874
:1013700004D06007400F0821081A0419002C31D04E
:101380002F4884422ED22D4F3800056801E02F00EF
:101390002D686868A04202D228680028F7D1294841
:1013A00085421FD038680830009028683860686827
:1013B000001B102810D92E196868001B70606C6023
:1013C00071681E4800E00068026852688A42FAD3D9
:1013D000026832600660C0461C4968680968081ADD
:1013E0001A490860FFF7D8F80098F8BC08BC1847FD
:1013F00070B506003500002E16D0083D2C00FFF712
:1014000089F961680D4800E00068026852688A4204
:10141000FAD30268226004600C49606809684018C9
:101420000A490860FFF7B8F870BC08BC18470748BD
:1014300000687047704700007401004040000040A1
:10144000F8330000480000405400004050000040C5
:101450000C009FE50C109FE504209FE508309FE5F8
:101460001EFF2FE198360040A0390040983600401A
:1014700001002DE900204DE90000A0E104D04DE27B
:101480000100BDE8004020E900E0A0E10100BDE866
:10149000FF7F4EE90000A0E13CE04EE200004FE19A
:1014A00001002EE94C009FE5000090E501002EE9C7
:1014B00044009FE5001090E500E081E53C009FE5D9
:1014C0000FE0A0E110FF2FE12C009FE5000090E568
:1014D00000E090E51C009FE50200BEE8001080E5FA
:1014E0000100BEE800F06FE1FF7FDEE80000A0E150
:1014F0003CE09EE504F05EE23C000040000000405D
:10150000BD17000000205BE041004118514A515CCA
:10151000002902D0012950D127E0410041184D4A4D
:101520008918897800290CD14B49896842008218B2
:10153000484BD218537801229A409143464A916011
:1015400012E041004118434A8918897801290BD1DA
:1015500041498968420082183E4BD21853780122D3
:101560009A4011433C4A916028E041004118394AB1
:101570008918897800290CD1374989694200821875
:10158000344BD218537801229A409143324A9161E8
:1015900012E0410041182F4A8918897801290BD19E
:1015A0002D498969420082182A4BD21853780122AA
:1015B0009A401143284A916100E0C046C046401C51
:1015C0002649098888429FDB70470200002A02D022
:1015D000012A0CD105E0204B1B68CB40D807C00F77
:1015E00005E01D4B1B69CB40D807C00FC046C04665
:1015F000704710B4002802D0012827D113E0002A38
:1016000007D1154BDB6801248C402343124CE36067
:1016100008E0012A06D1104B5B6801248C4023436B
:101620000D4C636012E0002A07D10B4BDB690124EB
:101630008C402343084CE36108E0012A06D1064BA5
:101640005B6901248C402343034C6361C04610BC9A
:101650007047000058000040008002E0B2000040E7
:101660007D20C0001549C86008004068012108437A
:1016700012494860704710B5E120400200F022F89E
:10168000FFF740FFFFF7ECFF01200D49087010BC89
:1016900008BC1847FFF7EFFFFFF745FAC046FEE723
:1016A0000648406802210843044948600800406831
:1016B000022188430149486070470000008000E033
:1016C00000C11FE070B505005A48006801210904F7
:1016D000084358490860080000680121890408434C
:1016E000544908602E013100534800F0CBF9040042
:1016F0005248007B80210843504908730C70240A2B
:101700000C7107200872032008734814C0688021F8
:1017100088434B49C8600800006980210843484954
:10172000086148484849486027204849486043487C
:101730000079032108434149087170BC08BC18476F
:10174000010043480078012809D10020404A107068
:1017500040480078000600160870012070470020FD
:10176000FCE7364A1070704770B505000C003A4827
:101770000078002820D1002D1ED038490C70364941
:101780000C70002303E0E85C3549C8545B1CA3429D
:10179000F9DB31490A780978491E2F4E31702F49FB
:1017A0000978891A2E4A515C09060816FFF7D9FFF5
:1017B000012070BC08BC18470020FAE710B41F4A8B
:1017C000107A2EE00207120F022A0BD0042A1CD036
:1017D000062A02D00C2A20D116E0184A127D1106E2
:1017E00009161BE01C4A1278002A0CDD1A4A1378ED
:1017F0001278521E184C2270184A1278D21A184BBE
:101800009A5C0E4B1A7009E0C0460C4A1278114BD4
:101810001A7001220E4B1A7000E0C046C046074AFB
:10182000107AC207D20F002ACCD00022044B1A63D0
:1018300010BC704700C002E000879303000001E085
:1018400000F0FFFF7014000000F1FFFF00F2FFFF47
:10185000B5000040B4000040B7000040B6000040B2
:101860006C350040013090E12100004A0020B0E3D7
:10187000A03071E01A00003A203271E00F00003A07
:10188000203471E00100003A00C0A0E3200000EA2B
:10189000A03371E0810340200220B2E0203371E0E8
:1018A000010340200220B2E0A03271E0810240201A
:1018B0000220B2E0203271E0010240200220B2E0BA
:1018C000A03171E0810140200220B2E0203171E0BE
:1018D000010140200220B2E0A03071E081004020F0
:1018E0000220B2E0011050E00010A0310200A2E09E
:1018F0001EFF2FE1022111E20010614240C032E0E0
:1019000000006022203271E01D00003A203471E0B6
:101910000F00003A0113A0E1203471E03F2382E37D
:101920000B00003A0113A0E1203471E03F2682E36E
:101930000700003A0113A0E1203471E03F2982E35F
:101940000113A0213F2C8223003071E21D00002AE8
:101950002113A021A03371E0810340200220B2E0D6
:10196000203371E0010340200220B2E0A03271E098
:10197000810240200220B2E0203271E001024020CA
:101980000220B2E0A03171E0810140200220B2E0EB
:10199000203171E0010140200220B2E0EBFFFF2A7C
:1019A000A03071E0810040200220B2E0011050E040
:1019B0000010A0310200A2E0CCCFB0E100006042F4
:1019C000001061221EFF2FE1CCCFB0E10000604289
:1019D00001402DE90000B0E30000A0E10240BDE8B5
:1019E0001EFF2FE170477047704700000E50A0E1C6
:1019F0001A0000EB05E0A0E10050B0E10D10A0E1FD
:101A00000A30A0E10700C0E300D0A0E160D08DE281
:101A100020402DE98DFEFFEB2040BDE80060A0E3F3
:101A20000070A0E30080A0E300B0A0E30710C1E3D2
:101A300005C0A0E1C009ACE8C009ACE8C009ACE849
:101A4000C009ACE801D0A0E11EFF2FE110B50400F1
:101A5000C046C0462000FEF7D1FB10BC08BC1847AA
:101A600000009FE51EFF2FE13436004001C08FE2E9
:101A70001CFF2FE101491820ABDFFEE72600020022
:101A80001EFF2FE17847C0460020B0E3203171E00F
:101A900090FFFF3AA03271E085FFFF3A203471E0F9
:101AA0007AFFFF3A00C0A0E399FFFFEA7847C046FB
:101AB0006C019FE5000090E500E090E564019FE582
:101AC0000200BEE8001080E50100BEE800F06FE112
:101AD000FF7FDEE80000A0E13CE09EE504F05EE26E
:101AE000000000EF1EFF2FE104E08EE201002DE96F
:101AF00000204DE90000A0E104D04DE20100BDE866
:101B0000004020E900E0A0E10100BDE8FF7F4EE9D0
:101B10000000A0E13CE04EE200004FE101002EE9B0
:101B200000019FE5000090E501002EE9F0009FE52F
:101B3000001090E500E081E5EC009FE50FE0A0E1FA
:101B400010FF2FE1D8009FE5000090E500E090E550
:101B5000D0009FE50200BEE8001080E50100BEE86D
:101B600000F06FE1FF7FDEE80000A0E13CE09EE5D1
:101B700004F05EE201002DE900204DE90000A0E143
:101B800004D04DE20100BDE8004020E900E0A0E102
:101B90000100BDE8FF7F4EE90000A0E13CE04EE21D
:101BA00000004FE101002EE978009FE5000090E57C
:101BB00001002EE968009FE5001090E500E081E556
:101BC00068009FE50FE0A0E110FF2FE1000050E367
:101BD0000200000A50009FE50FE0A0E110FF2FE196
:101BE0000100A0E348109FE5000081E544009FE567
:101BF000000080E528009FE5000090E500E090E50A
:101C000020009FE50200BEE8001080E50100BEE86C
:101C100000F06FE1FF7FDEE80000A0E13CE09EE520
:101C200004F05EE2000000403C000040A508000017
:101C3000A3040000004000E030F0FFFF7847C046FA
:101C4000A6FFFFEA7847C04600000FE1801080E35E
:101C500001F021E1800000E21EFF2FE17847C0463D
:101C600000000FE18000C0E300F021E11EFF2FE142
:101C70007847C04601C05EE50C0053E10100003A20
:101C80000C30DEE7000000EA0330DEE783C08EE0C0
:101C90001CFF2FE1B41C000000000040B800000051
:101CA000480100006C1D0000B8000040003C00002E
:101CB00070010000000000000000000000000000B3
:101CC0000000000000000000000000000000000014
:101CD0000000000000000000000000000000000004
:101CE00000000000000000000000000000000000F4
:101CF0000F270000000000000000000000000000AE
:101D000000000000F8330000000000000010000098
:101D10001101001201001301001401001501001649
:101D200001001701001801001901001A01001B0130
:101D3000001D01001E01001F010110010111010120
:101D4000120101130101140101150101160101170E
:101D500001011801011901011A01011B01011D01F5
:0C1D6000011E01011F011E000000000018
:0400000500000104F2
:00000001FF
